{
  "contractName": "RegistrasiKopi",
  "abi": [
    {
      "inputs": [],
      "stateMutability": "nonpayable",
      "type": "constructor"
    },
    {
      "anonymous": false,
      "inputs": [
        {
          "indexed": false,
          "internalType": "uint256",
          "name": "idKopi",
          "type": "uint256"
        },
        {
          "indexed": false,
          "internalType": "string",
          "name": "keterangan",
          "type": "string"
        },
        {
          "indexed": true,
          "internalType": "address",
          "name": "dilakukanOleh",
          "type": "address"
        }
      ],
      "name": "AktivitasDicatat",
      "type": "event"
    },
    {
      "anonymous": false,
      "inputs": [
        {
          "indexed": false,
          "internalType": "uint256",
          "name": "idKopi",
          "type": "uint256"
        },
        {
          "indexed": true,
          "internalType": "address",
          "name": "dari",
          "type": "address"
        },
        {
          "indexed": true,
          "internalType": "address",
          "name": "ke",
          "type": "address"
        }
      ],
      "name": "KepemilikanBerpindah",
      "type": "event"
    },
    {
      "anonymous": false,
      "inputs": [
        {
          "indexed": false,
          "internalType": "uint256",
          "name": "idKopi",
          "type": "uint256"
        },
        {
          "indexed": false,
          "internalType": "string",
          "name": "namaPetani",
          "type": "string"
        },
        {
          "indexed": true,
          "internalType": "address",
          "name": "pemilik",
          "type": "address"
        }
      ],
      "name": "KopiTerdaftar",
      "type": "event"
    },
    {
      "inputs": [
        {
          "internalType": "string",
          "name": "_namaPetani",
          "type": "string"
        },
        {
          "internalType": "string",
          "name": "_lokasiKebun",
          "type": "string"
        },
        {
          "internalType": "string",
          "name": "_jenisKopi",
          "type": "string"
        },
        {
          "internalType": "string",
          "name": "_tanggalPanen",
          "type": "string"
        },
        {
          "internalType": "string",
          "name": "_sertifikasi",
          "type": "string"
        }
      ],
      "name": "daftarKopiBaru",
      "outputs": [],
      "stateMutability": "nonpayable",
      "type": "function"
    },
    {
      "inputs": [
        {
          "internalType": "uint256",
          "name": "_idKopi",
          "type": "uint256"
        },
        {
          "internalType": "address",
          "name": "_pemilikBaru",
          "type": "address"
        }
      ],
      "name": "pindahKepemilikan",
      "outputs": [],
      "stateMutability": "nonpayable",
      "type": "function"
    },
    {
      "inputs": [
        {
          "internalType": "uint256",
          "name": "_idKopi",
          "type": "uint256"
        }
      ],
      "name": "lihatDetailKopi",
      "outputs": [
        {
          "internalType": "string",
          "name": "namaPetani",
          "type": "string"
        },
        {
          "internalType": "string",
          "name": "lokasiKebun",
          "type": "string"
        },
        {
          "internalType": "string",
          "name": "jenisKopi",
          "type": "string"
        },
        {
          "internalType": "string",
          "name": "tanggalPanen",
          "type": "string"
        },
        {
          "internalType": "string",
          "name": "sertifikasi",
          "type": "string"
        },
        {
          "internalType": "address",
          "name": "pemilikSekarang",
          "type": "address"
        }
      ],
      "stateMutability": "view",
      "type": "function",
      "constant": true
    },
    {
      "inputs": [
        {
          "internalType": "uint256",
          "name": "_idKopi",
          "type": "uint256"
        },
        {
          "internalType": "string",
          "name": "_keterangan",
          "type": "string"
        }
      ],
      "name": "catatAktivitas",
      "outputs": [],
      "stateMutability": "nonpayable",
      "type": "function"
    }
  ],
  "bytecode": "0x608060405234801561001057600080fd5b5060018055610c2b806100246000396000f3fe608060405234801561001057600080fd5b506004361061004c5760003560e01c8063e717c63014610051578063e7d8c92514610066578063eb83306014610079578063f7bb5f25146100a7575b600080fd5b61006461005f366004610759565b6100ba565b005b610064610074366004610838565b6101e6565b61008c61008736600461090a565b610335565b60405161009e96959493929190610969565b60405180910390f35b6100646100b53660046109e6565b6106da565b600082815260208190526040902060060154600160a01b900460ff166100fb5760405162461bcd60e51b81526004016100f290610a2d565b60405180910390fd5b6000828152602081905260409020600601546001600160a01b0316331461017a5760405162461bcd60e51b815260206004820152602d60248201527f48616e79612070656d696c696b207361617420696e692079616e67206461706160448201526c3a1036b2b6b4b73230b435b0b760991b60648201526084016100f2565b6000828152602081815260409182902060060180546001600160a01b031981166001600160a01b0386811691821790935593518681529116929183917f99163cad8b47b8b12d15d02621febe41f9a185f946026010635a3fcb9c42558d910160405180910390a3505050565b60408051610100810182526001805480835260208084018a81528486018a9052606085018990526080850188905260a085018790523360c086015260e085018490526000928352908290529390208251815592519192919082019061024b9082610aed565b50604082015160028201906102609082610aed565b50606082015160038201906102759082610aed565b506080820151600482019061028a9082610aed565b5060a0820151600582019061029f9082610aed565b5060c08201516006909101805460e0909301511515600160a01b026001600160a81b03199093166001600160a01b039092169190911791909117905560015460405133917f2d57ff825c3cde46e331aba63cc9b98b88631f5e7d70e57104d94c946a8a442a9161031191908990610bad565b60405180910390a26001805490600061032983610bce565b91905055505050505050565b600081815260208190526040812060060154606091829182918291829190600160a01b900460ff166103795760405162461bcd60e51b81526004016100f290610a2d565b600080600089815260200190815260200160002060405180610100016040529081600082015481526020016001820180546103b390610a64565b80601f01602080910402602001604051908101604052809291908181526020018280546103df90610a64565b801561042c5780601f106104015761010080835404028352916020019161042c565b820191906000526020600020905b81548152906001019060200180831161040f57829003601f168201915b5050505050815260200160028201805461044590610a64565b80601f016020809104026020016040519081016040528092919081815260200182805461047190610a64565b80156104be5780601f10610493576101008083540402835291602001916104be565b820191906000526020600020905b8154815290600101906020018083116104a157829003601f168201915b505050505081526020016003820180546104d790610a64565b80601f016020809104026020016040519081016040528092919081815260200182805461050390610a64565b80156105505780601f1061052557610100808354040283529160200191610550565b820191906000526020600020905b81548152906001019060200180831161053357829003601f168201915b5050505050815260200160048201805461056990610a64565b80601f016020809104026020016040519081016040528092919081815260200182805461059590610a64565b80156105e25780601f106105b7576101008083540402835291602001916105e2565b820191906000526020600020905b8154815290600101906020018083116105c557829003601f168201915b505050505081526020016005820180546105fb90610a64565b80601f016020809104026020016040519081016040528092919081815260200182805461062790610a64565b80156106745780601f1061064957610100808354040283529160200191610674565b820191906000526020600020905b81548152906001019060200180831161065757829003601f168201915b5050509183525050600691909101546001600160a01b038116602080840191909152600160a01b90910460ff161515604092830152820151908201516060830151608084015160a085015160c090950151939d929c50909a509850919650945092505050565b600082815260208190526040902060060154600160a01b900460ff166107125760405162461bcd60e51b81526004016100f290610a2d565b336001600160a01b03167f02204b454a1eb4cbb487cd824d1fa5b5da944771197041f75f0cee4783871489838360405161074d929190610bad565b60405180910390a25050565b6000806040838503121561076c57600080fd5b8235915060208301356001600160a01b038116811461078a57600080fd5b809150509250929050565b634e487b7160e01b600052604160045260246000fd5b600082601f8301126107bc57600080fd5b813567ffffffffffffffff808211156107d7576107d7610795565b604051601f8301601f19908116603f011681019082821181831017156107ff576107ff610795565b8160405283815286602085880101111561081857600080fd5b836020870160208301376000602085830101528094505050505092915050565b600080600080600060a0868803121561085057600080fd5b853567ffffffffffffffff8082111561086857600080fd5b61087489838a016107ab565b9650602088013591508082111561088a57600080fd5b61089689838a016107ab565b955060408801359150808211156108ac57600080fd5b6108b889838a016107ab565b945060608801359150808211156108ce57600080fd5b6108da89838a016107ab565b935060808801359150808211156108f057600080fd5b506108fd888289016107ab565b9150509295509295909350565b60006020828403121561091c57600080fd5b5035919050565b6000815180845260005b818110156109495760208185018101518683018201520161092d565b506000602082860101526020601f19601f83011685010191505092915050565b60c08152600061097c60c0830189610923565b828103602084015261098e8189610923565b905082810360408401526109a28188610923565b905082810360608401526109b68187610923565b905082810360808401526109ca8186610923565b91505060018060a01b03831660a0830152979650505050505050565b600080604083850312156109f957600080fd5b82359150602083013567ffffffffffffffff811115610a1757600080fd5b610a23858286016107ab565b9150509250929050565b60208082526019908201527f44617461206b6f706920746964616b20646974656d756b616e00000000000000604082015260600190565b600181811c90821680610a7857607f821691505b602082108103610a9857634e487b7160e01b600052602260045260246000fd5b50919050565b601f821115610ae857600081815260208120601f850160051c81016020861015610ac55750805b601f850160051c820191505b81811015610ae457828155600101610ad1565b5050505b505050565b815167ffffffffffffffff811115610b0757610b07610795565b610b1b81610b158454610a64565b84610a9e565b602080601f831160018114610b505760008415610b385750858301515b600019600386901b1c1916600185901b178555610ae4565b600085815260208120601f198616915b82811015610b7f57888601518255948401946001909101908401610b60565b5085821015610b9d5787850151600019600388901b60f8161c191681555b5050505050600190811b01905550565b828152604060208201526000610bc66040830184610923565b949350505050565b600060018201610bee57634e487b7160e01b600052601160045260246000fd5b506001019056fea26469706673582212208abc96e570e1d6eda5f39a46e9fe5def4a2f5fc1a334855900b54ed02c98581864736f6c63430008140033",
  "immutableReferences": {},
  "source": "// SPDX-License-Identifier: MIT\r\npragma solidity ^0.8.20;\r\n\r\ncontract RegistrasiKopi {\r\n    // Struktur data untuk menyimpan informasi kopi\r\n    struct DataKopi {\r\n        uint256 idKopi;\r\n        string namaPetani;\r\n        string lokasiKebun;\r\n        string jenisKopi;\r\n        string tanggalPanen;\r\n        string sertifikasi;\r\n        address pemilikSekarang;\r\n        bool sudahTerdaftar;\r\n    }\r\n\r\n    // Daftar semua kopi\r\n    mapping(uint256 => DataKopi) private daftarKopi;\r\n\r\n    // Nomor ID berikutnya\r\n    uint256 private idBerikutnya;\r\n\r\n    // Constructor\r\n    constructor() {\r\n        idBerikutnya = 1;\r\n    }\r\n\r\n    // ======== EVENT ========\r\n    event KopiTerdaftar(uint256 idKopi, string namaPetani, address indexed pemilik);\r\n    event KepemilikanBerpindah(uint256 idKopi, address indexed dari, address indexed ke);\r\n    event AktivitasDicatat(uint256 idKopi, string keterangan, address indexed dilakukanOleh);\r\n\r\n    // ===============================================================\r\n    //  Fungsi: Registrasi Kopi Baru\r\n    // ===============================================================\r\n    function daftarKopiBaru(\r\n        string memory _namaPetani,\r\n        string memory _lokasiKebun,\r\n        string memory _jenisKopi,\r\n        string memory _tanggalPanen,\r\n        string memory _sertifikasi\r\n    ) public {\r\n        daftarKopi[idBerikutnya] = DataKopi({\r\n            idKopi: idBerikutnya,\r\n            namaPetani: _namaPetani,\r\n            lokasiKebun: _lokasiKebun,\r\n            jenisKopi: _jenisKopi,\r\n            tanggalPanen: _tanggalPanen,\r\n            sertifikasi: _sertifikasi,\r\n            pemilikSekarang: msg.sender,\r\n            sudahTerdaftar: true\r\n        });\r\n\r\n        emit KopiTerdaftar(idBerikutnya, _namaPetani, msg.sender);\r\n        idBerikutnya++;\r\n    }\r\n\r\n    // ===============================================================\r\n    //  Fungsi: Pindah Kepemilikan\r\n    // ===============================================================\r\n    function pindahKepemilikan(uint256 _idKopi, address _pemilikBaru) public {\r\n        require(daftarKopi[_idKopi].sudahTerdaftar, \"Data kopi tidak ditemukan\");\r\n        require(msg.sender == daftarKopi[_idKopi].pemilikSekarang, \"Hanya pemilik saat ini yang dapat memindahkan\");\r\n\r\n        address pemilikLama = daftarKopi[_idKopi].pemilikSekarang;\r\n        daftarKopi[_idKopi].pemilikSekarang = _pemilikBaru;\r\n\r\n        emit KepemilikanBerpindah(_idKopi, pemilikLama, _pemilikBaru);\r\n    }\r\n\r\n    // ===============================================================\r\n    //  Fungsi: Lihat Detail Kopi\r\n    // ===============================================================\r\n    function lihatDetailKopi(uint256 _idKopi)\r\n        public\r\n        view\r\n        returns (\r\n            string memory namaPetani,\r\n            string memory lokasiKebun,\r\n            string memory jenisKopi,\r\n            string memory tanggalPanen,\r\n            string memory sertifikasi,\r\n            address pemilikSekarang\r\n        )\r\n    {\r\n        require(daftarKopi[_idKopi].sudahTerdaftar, \"Data kopi tidak ditemukan\");\r\n        DataKopi memory kopi = daftarKopi[_idKopi];\r\n        return (\r\n            kopi.namaPetani,\r\n            kopi.lokasiKebun,\r\n            kopi.jenisKopi,\r\n            kopi.tanggalPanen,\r\n            kopi.sertifikasi,\r\n            kopi.pemilikSekarang\r\n        );\r\n    }\r\n\r\n    // ===============================================================\r\n    //  Fungsi: Catat Aktivitas\r\n    // ===============================================================\r\n    function catatAktivitas(uint256 _idKopi, string memory _keterangan) public {\r\n        require(daftarKopi[_idKopi].sudahTerdaftar, \"Data kopi tidak ditemukan\");\r\n        emit AktivitasDicatat(_idKopi, _keterangan, msg.sender);\r\n    }\r\n}\r\n",
  "sourcePath": "C:\\MKP 8 Blockchaind\\Based Digital Asset Coffe\\coffee-traceability\\contracts\\CoffeeRegistry.sol",
  "compiler": {
    "name": "solc",
    "version": "0.8.20+commit.a1b79de6.Emscripten.clang"
  },
  "schemaVersion": "3.4.16",
  "updatedAt": "2025-10-27T02:58:41.493Z",
  "networkType": "ethereum",
  "devdoc": {
    "kind": "dev",
    "methods": {},
    "version": 1
  },
  "userdoc": {
    "kind": "user",
    "methods": {},
    "version": 1
  }
}